:100000000C9417030C945E030C945E030C945E0333
:100010000C945E030C945E030C945E030C945E03DC
:100020000C945E030C945E030C94F2280C94C42987
:100030000C940B240C945E030C945E030C945E03EE
:100040000C945E030C945E030C945E030C945E03AC
:100050000C945E030C9464240C945E030C945E0375
:100060000C945E030C945E030C945E030C945E038C
:100070000C945E030C945E030C945E030C945E037C
:100080000C945E030C945E030C945E030C945E036C
:100090000C945E030C945E030C945E030C945E035C
:1000A0000C945E030C945E030C945E034319431995
:1000B00075197519C219E019011B011BEB19801A7A
:1000C000911A911AF11A011B011BFA1AA11BA11B0B
:1000D000B31BB31BAA1BB31BB31BB31BA11BA11BDD
:1000E000AF1BB31BB31BAF1B312A582A502B582A06
:1000F000502BA42AC72A502B1E2B2D2BE000015178
:10010000E20051005000E7002C00E400E600E100AE
:1001100064001D001B0006001900050011001000FE
:10012000390004001600070009000A000B000D004A
:100130000E002B0014001A000800150017001C0008
:1001400018000C0035001E001F00200021002200B6
:1001500023002400250029003A003B003C003D001C
:100160003E003F00400041005800630062004E0026
:10017000560000004F000000000058005B005A00CD
:100180005200E500380059003700360057005E0085
:100190005D000000310034005C0033000F005700A8
:1001A00061006000280030002F005F001300120083
:1001B000550054004C0031002E002D002A0027006D
:1001C00026004B004D004A0046004500440049000F
:1001D000430042000100010001004E004A000100FE
:1001E0000100650001000100010001000100BE5C8A
:1001F000C05CBF5C01000100C05C010001000100A7
:1002000001000100010001000100B200C35C010017
:10021000C45CC65CC75CC85CC95CCA5C3508AC0021
:10022000AD00AE00AB000100010001000100005C68
:10023000A800AA00A90001000100010001000100BE
:100240000100010001000100010000004D0000005C
:1002500000000100010001004B000100010001004D
:100260000100010001000100010000000100010087
:10027000010001000F080100010001000100010060
:10028000010001000100CB5C0100010053000100EE
:100290000100010001000100010001000100470010
:1002A0000100010001000100010001001E0F050016
:1002B000047F3F1F643214643214783C1E1E140AFB
:1002C000052223252628292A2C2D2F303233353696
:1002D000383A3B3D3E4042434547494A4C4E5051D7
:1002E000535557595A5C5E6062646668696B6D6FFE
:1002F00071737577797B7D7F81838587898A8C8E01
:1003000090929496989A9C9E9FA1A3A5A7A8AAAC08
:10031000AEAFB1B3B4B6B8B9BBBCBEBFC1C2C3C542
:10032000C6C7C9CACBCCCDCED0D1D2D2D3D4D5D6E4
:10033000D7D7D8D9D9DADADBDBDBDCDCDCDCDCDD17
:10034000DDDDDDDCDCDCDCDCDBDBDBDADAD9D9D8FB
:10035000D7D7D6D5D4D3D2D2D1D0CECDCCCBCAC993
:10036000C7C6C5C3C2C1BFBEBCBBB9B8B6B4B3B1C2
:10037000AFAEACAAA8A7A5A3A19F9E9C9A9896945D
:1003800092908E8C8A89878583817F7D7B79777532
:1003900073716F6D6B6968666462605E5C5A595711
:1003A000555351504E4C4A4947454342403E3D3BD0
:1003B0003A3836353332302F2D2C2A29282625235A
:1003C00022FFAA7F55400001010101010101010145
:1003D00002020202020202020203030303030303F6
:1003E00003040404040404040505050505060606C3
:1003F0000606070707070708080808090909090A80
:100400000A0A0B0B0B0C0C0C0D0D0D0E0E0E0F0F24
:100410000F101011111112121313141415151616B2
:100420001717181819191A1A1B1B1C1D1D1E1E1F21
:100430002020212222232424252626272829292A70
:100440002B2C2D2D2E2F3031323233343536373898
:10045000393A3B3C3D3E3F40414243444546474894
:10046000494A4C4D4E4F50515354555658595A5B6A
:100470005D5E5F616264656668696B6C6D6F70720A
:10048000737577787A7B7D7E8082838587888A8C76
:100490008E8F91939596989A9C9EA0A2A3A5A7A9AA
:1004A000ABADAFB1B3B5B7BABCBEC0C2C4C6C9CBA1
:1004B000CDCFD1D4D6D8DBDDDFE2E4E7E9EBEEF057
:1004C000F3F5F8FAFDFF12034D0065006C006F00B4
:1004D000640079003900360000000A0359004D001D
:1004E00044004B0000000403090409023B00020120
:1004F00000A0FA0904000001030101000921110113
:1005000000012240000705810308000A09040100D8
:10051000010300000009211101000122B6000705B6
:10052000820320000A12011001000000084D5996B4
:100530004D01000102000105010902A10185020926
:1005400001A1000509190129081500250195087563
:100550000181020501093009311581257F95027558
:1005600008810609381581257F95017508810605E2
:100570000C0A38021581257F950175088106C0C0D7
:1005800005010980A101850319012AB7001501267B
:10059000B700950175108100C0050C0901A1018506
:1005A0000419012AA002150126A0029501751081E7
:1005B00000C005010906A1018505050719E029E725
:1005C000150025019508750181020507190029EF1D
:1005D0001500250195F0750181020508190129050D
:1005E000950575019102950175039101C0050109F9
:1005F00006A101050719E029E715002501950875F1
:100600000181029501750881010507190029FF156F
:100610000026FF00950675088100050819012905C7
:10062000950575019102950175039101C000112492
:100630001FBECFEFDAE0DEBFCDBF04B603FE27C09A
:100640008091C0039091C103A091C203B091C303F4
:100650008730904BA740B04BD1F41092C00310925A
:10066000C1031092C2031092C30314BE84B7877FE4
:1006700084BF0FB6F894A89580916000886180933C
:100680006000109260000FBEE0E0F8E3099511E011
:10069000A0E0B1E0E2E0FAE502C005900D92AE3CC8
:1006A000B107D9F723E0AEECB1E001C01D92A03C48
:1006B000B207E1F70E942C260C94FF2C0C9400004A
:1006C00081E0089581E008950C94620308950C94EC
:1006D00066031F93CF93DF9300D000D01F92CDB756
:1006E000DEB749835A836B833091710289819A8185
:1006F000311114C0662359F0222349F00E94DA20F8
:10070000182F682F89819A810E94832003C00E943C
:10071000AE20182F69817A81812F04C00E94DA20CF
:1007200069817A810F900F900F900F900F90DF9159
:10073000CF911F910C945B04FC01262F40815181C5
:100740006281738184810C946903CF93DF93EC0100
:1007500060E00E949C03BE01DF91CF910C9467037F
:100760000E947D060E9447040E94D8130C94BA068A
:100770000C94B60608950E948F1B0E94BA032FEFB7
:1007800084E39CE0215080409040E1F700C00000ED
:100790000C948A240F931F93CF93DF938C0161E015
:1007A0000E949C03EC01B8010E946403882309F4B1
:1007B0004BC0B801CE010E943913882309F444C00C
:1007C000B801CE010E9486148823F1F1B801CE0150
:1007D0000E94D8148823C1F1B801CE010E940316EB
:1007E000882391F1B801CE010E947D11882361F127
:1007F000F8018281882309F1CB358DE5D807C1F056
:1008000050F4C115FCE5DF0781F0CF3DDC45A9F4CC
:100810000E94EB2219C0CC35EDE5DE0761F0CD3545
:10082000DD4559F40E946D2108C00E94BB030CC035
:100830000E94762102C00E947921C801DF91CF91E8
:100840001F910F910C94600380E0DF91CF911F9175
:100850000F91089508950C942A0481E00895CF9390
:10086000C82F0E942D04882381F0C095C0FF02C0CC
:10087000469A01C04698C1FF02C0479A01C04798F6
:10088000C2FF02C02D9A01C02D98CF9108953E9AC3
:10089000469A3F9A479A259A2D9A0895CF93C82F42
:1008A0000E942B048C2F0E942F04CF91089580E08A
:1008B00090E0089508952CE6829FC0011124FC0168
:1008C00029E0729FE00DF11D1124E60FF11DEE0FDE
:1008D000FF1FE450FF4F859194910895880F991F51
:1008E000FC01E455FD4F859194910895CF93DF93DA
:1008F0000E945B040E948E05EC018115904508F072
:1009000041C0C11580E4D80708F0D1C0C83ED10568
:1009100010F5C03ED10508F0FDC0C83AD10578F405
:10092000C53AD10508F0A2C0C130D10509F4F2C022
:1009300008F4EEC0C430D10508F0ECC0E9C0CF3BEC
:10094000D10508F49BC0C03CD10508F4E1C0CE013C
:10095000805C91099EC0C11590E2D90758F4C11579
:1009600021E0D20708F0D6C0CD3ED10508F4D0C0B2
:10097000D065D0C0C11580E3D80708F08EC0CE0185
:100980009F7087C0C11595E5D90708F043C0C11510
:1009900024E5D20708F0A2C0C11582E5D80708F502
:1009A000C11591E5D90708F085C0CE0174E0969590
:1009B00087957A95E1F783709C2F937021E030E062
:1009C00002C0220F331F9A95E2F73C68382BCF7094
:1009D000C695C69580E2C89FE0011124C22BD32B97
:1009E00099C09E01237033278C2F86958695C1155B
:1009F000D34508F064C0C1E0D0E002C0CC0FDD1FD9
:100A00002A95E2F720E2829FC0011124C82BD92B3E
:100A1000DC6880C0C11529E5D207A0F4C11588E5BE
:100A2000D80708F060C0C11596E5D90708F070C076
:100A30008C2F0E9422068F71C82FD0E0DC2FCC278C
:100A4000D06268C0C1152AE5D20708F451C0CE01B2
:100A500090568115904208F05BC08D2F8F710E94D7
:100A60002206DD27D0628F71D82B54C0C55AD0E042
:100A7000C65ADE4FC881D0E0D0644CC0C85AD0E01E
:100A8000CC0FDD1FC45DDE4F0990D881C02DD4642A
:100A900041C00E946E04EC013DC0CE019927D3FFF6
:100AA00003C0EC01D86C36C0EC01D06C33C0DF70F1
:100AB000D06A30C0DC2FCC27C16FD06A2BC0C1E018
:100AC000D0E002C0CC0FDD1F2A95E2F720E2829F22
:100AD000C0011124C82BD92BDA681CC0DC2FCC270D
:100AE000C46FD06A17C0DC2FCC27C06FD06A12C089
:100AF0008C2F8F700E94220694E0D695C7959A9508
:100B0000E1F7CF70D0E0DC2FCC27D069C82B02C032
:100B1000C0E0D0E0CE01DF91CF91089582389105F9
:100B200069F1B0F48133910509F46DC048F489325C
:100B3000910509F463C08A32910509F469C00895EA
:100B40008533910509F455C089339105B9F00895AD
:100B5000833E910569F138F4803E9105B1F0823E03
:100B6000910509F10895863E9105A9F1873E910509
:100B7000B9F1843E910509F064C023C0209141037E
:100B800020FD4FC021FD4DC008958091410380FD9F
:100B900044C08091420380FF44C08091410384FDA2
:100BA00042C083EE4DC08091410382FF38C0F5CF33
:100BB0008091410382FD33C08091420380FD31C0AA
:100BC000ECCF8091420381FF32C08091410384FDCC
:100BD0002AC087EE35C08091410383FF26C0F5CF40
:100BE0008091410383FD21C08091420381FD1FC09C
:100BF000ECCF8091410385FD1CC01DC08091410355
:100C000085FD19C016C08091410386FD16C017C02E
:100C10008091410386FD13C010C089E311C082EEAC
:100C20000FC080EE0DC080E00BC086EE09C084EEE0
:100C300007C089E205C085E303C08AE201C081E301
:100C400090E008959091410392FF0DC0282F2871E4
:100C5000283019F4877F846006C0282F247124303F
:100C600011F48B7F886093FF0DC0282F28712831E5
:100C700019F4877E846106C0282F2471243111F471
:100C80008B7E88612091420320FF0DC0382F387180
:100C9000383019F4877F816006C0382F31713130C8
:100CA00011F48E7F886021FF0DC0282F2871283114
:100CB00019F4877E816106C0282F2171213111F43A
:100CC0008E7E886194FD877E08950C943D220E945B
:100CD000FB068FE39CE90197F1F700C000000E943A
:100CE000FB0685E00E94A10680FF04C00E94650605
:100CF0000C948A2408950C9467060E944322811163
:100D000002C00E94EB220E944E2280931D030E948B
:100D1000562290934203809341030E947B060E94D7
:100D20005222682F70E080E090E00E94851F609161
:100D3000F0027091F1028091F2029091F3020C9412
:100D4000BD1FE82FF0E0EE0FFF1FE55AFC4F80813A
:100D500091810895089580EA8A95F1F7089500C079
:100D600008950C94AB0608950C94B3060C94B40645
:100D70000C94B3060C94B806F894E82FE295EF7043
:100D8000F0E031A1282F2F7081E090E001C0880FA2
:100D90002A95EAF7982F9095932391A392A1892BF6
:100DA00082A378940895CF93DF93CDE5D1E0899124
:100DB0000E94BC0681E0C636D807C9F7C6E6D1E076
:100DC00089910E94BC0681E0C237D807C9F7E3E4E5
:100DD000F3E0ABE5B3E08BE593E0119211921D9245
:100DE0001D928E179F07C9F78CE00E949607DF912E
:100DF000CF910C94B0034F925F927F928F929F920B
:100E0000AF92BF92CF92DF92EF92FF920F931F9318
:100E1000CF93DF939DE5E92E91E0F92E00E010E0FD
:100E2000C0E0CC24C394D12C3BE5A32E33E0B32EF9
:100E30004701D7018C91F894E82FE295EF70F0E02C
:100E400021A18F70A60102C0440F551F8A95E2F7B9
:100E5000CA01922F982B91A392A18095892382A3F6
:100E600078940E94AF06A601002E02C0440F551FC1
:100E70000A94E2F7BA0160957095E3E4F3E086E640
:100E8000482E81E0582ED0E020813181D2017D9022
:100E90002D01872D82958F7090E0DC0190968C91CA
:100EA00090E0B72DBF7002C095958795BA95E2F78F
:100EB00080FD04C0C901842B952B03C0C901862382
:100EC00097232817390719F091838083D1E0329650
:100ED000AE16BF06C9F6EFEFEE1AFE0AD4018C91EA
:100EE0000E94BC060E94B106CD2B0F5F1F4F093038
:100EF000110509F09DCF2C2F4CE06BE573E083E4E6
:100F000093E00E9497070E94B8038C2FDF91CF9146
:100F10001F910F91FF90EF90DF90CF90BF90AF9017
:100F20009F908F907F905F904F9008950895FF92CB
:100F30000F931F93CF93DF93F82E092F162FD72FE0
:100F4000C42F222349F081E08093D2010E943D24E6
:100F50009093D1018093D0018091D2018823D9F060
:100F60008091D0019091D1010E945524069798F06C
:100F7000EF2DF02FA12FBD2F80E090E04C2F50E0FF
:100F80008417950734F4219131912D933D93019667
:100F9000F7CF1092D201DF91CF911F910F91FF9067
:100FA00008958091D90180FF0BC06091090185E00F
:100FB000689FB001112475956795759567952BC04D
:100FC00081FF09C06091090185E0689FB00111248B
:100FD0007595679520C082FF07C06091090185E083
:100FE000689FB001112417C09091D8019923D1F0C6
:100FF00060910801961788F72091090185E0289FE4
:1010000090011124929FA001939F500D112470E034
:10101000CA010E94C22B6038710540F46115710548
:1010200019F406C065E070E0862F08958FE70895F3
:1010300081E008958091D90180FF08C06091050189
:1010400070E0759567957595679521C081FF06C01D
:101050006091050170E07595679519C082FF04C025
:101060006091050170E010C09091D701992399F02B
:10107000609104019617A0F780910501899FC00136
:10108000112470E00E94C22B6038710540F4611594
:10109000710519F406C061E070E0862F08958FE7AE
:1010A000089581E008958D3E21F40E94D107819535
:1010B00004C08E3E29F40E94D1078093DD0108957B
:1010C0008F3E21F40E94D107819504C0803F29F40E
:1010D0000E94D1078093DC010895893F19F40E9492
:1010E0001A0805C08A3F31F40E941A08819580933E
:1010F000DE0108958B3F21F40E941A08819504C0F7
:101100008C3F29F40E941A088093DF0108959FE024
:10111000980F983078F421E030E0A90102C0440F24
:10112000551F9A95E2F7CA019091DB01892B8093B4
:10113000DB0108958D3F21F48091D90181600BC0BE
:101140008E3F21F48091D901826005C08F3F29F440
:101150008091D90184608093D90108958D3E39F43E
:101160009091DD0197FF35C01092DD0159C08E3E90
:1011700029F49091DD011916BCF32BC09091DC018C
:101180008F3E29F497FF25C01092DC0149C0803FB3
:1011900019F41916CCF31DC09091DE01893F29F492
:1011A0001916BCF41092DE013BC08A3F19F497FF78
:1011B00010C0F8CF8B3F39F49091DF0197FF09C041
:1011C0001092DF012DC08C3F21F49091DF011916A0
:1011D000BCF39FE0980F983080F421E030E0A90143
:1011E00002C0440F551F9A95E2F7CA01809590916D
:1011F000DB0189238093DB0113C08D3F21F48091B3
:10120000D9018E7F0BC08E3F21F48091D9018D7F53
:1012100005C08F3F29F48091D9018B7F8093D9013C
:101220008091DC01811106C08091DD01811102C035
:101230001092D8018091DE01811106C08091DF01FA
:10124000811102C01092D70108950E943D2420917F
:10125000DC01211104C02091DD01222321F09093B3
:10126000D6018093D5012091DE01211104C0209187
:10127000DF01222321F09093D4018093D3018AEDE2
:1012800091E00C945F16EF92FF920F931F93CF9310
:10129000DF9300D000D000D0CDB7DEB786E0EAED16
:1012A000F1E0DE01119601900D928A95E1F7E09050
:1012B000DC01F090DD010091DE011091DF01109260
:1012C000DC011092DD011092DE011092DF01E110CD
:1012D00003C0FF2009F45DC08091D5019091D60133
:1012E0000E945524AC019091D801992339F02091A6
:1012F0000A0130E02417350758F04BC020910B014C
:101300008AE0289F900111242417350718F041C066
:101310009F3F19F09F5F9093D801EE2061F00E94EB
:10132000D1071E1414F09FEF01C091E0989F902DFB
:1013300011249093DC01FF2061F00E94D1071F145B
:1013400014F09FEF01C091E0989F902D112490938D
:10135000DD013091DC013323E1F02091DD01222316
:10136000C1F045EB3403C0011124992319F0909387
:10137000DC0103C081E08093DC0135EB2303C00175
:101380001124992319F09093DD0103C081E080932B
:10139000DD01011103C0112309F45DC08091D30167
:1013A0009091D4010E945524AC019091D7019923CA
:1013B00039F02091060130E02417350758F04BC072
:1013C000209107018AE0289F9001112424173507F6
:1013D00018F041C09F3F19F09F5F9093D701002301
:1013E00061F00E941A08101614F09FEF01C091E0FE
:1013F000989F902D11249093DE01112361F00E949B
:101400001A08111614F09FEF01C091E0989F902DDB
:1014100011249093DF013091DE013323E1F020911C
:10142000DF012223C1F045EB3403C00111249923CD
:1014300019F09093DE0103C081E08093DE0135EB6B
:101440002303C0011124992319F09093DF0103C0F5
:1014500081E08093DF018091DC0181110BC08091DC
:10146000DD01811107C08091DE01811103C08091EF
:10147000DF0181110E942509EB82FC820D831E830E
:1014800086E0FE013196AAEDB1E001900D928A95B9
:10149000E1F726960FB6F894DEBF0FBECDBFDF9101
:1014A000CF911F910F91FF90EF900895EAEDF1E039
:1014B00086E0DF011D928A95E9F71092D80110921B
:1014C000D7011092D9010895EF92FF920F931F93C5
:1014D000CF93DF938B01682F11110AC0442329F0A9
:1014E000E82FF0E0EA53FC4F6491762F862F75C009
:1014F000212F30E0E82FF0E0442321F0EA53FC4FA5
:10150000E491F0E046E0049FC0011124CFEFD0E069
:10151000BE010E94AE2B4BEA4603C001479F900DCF
:101520001124800F911D800F911D982F990F890F05
:10153000AE01421B530B4E9FD0014F9FB00D5E9FDB
:10154000B00D11249B2F189FA0011124452F552762
:101550008E01041B150B0E9FA0010F9F500D1E9FA7
:10156000500D11247E01E81AF108E29E8001E39EED
:10157000100DF29E100D1124212F3327C21BD30B07
:10158000CE9F9001CF9F300DDE9F300D1124623031
:101590007105A9F048F46115710569F061307105B4
:1015A000C9F48B2F752F0DC06430710581F058F090
:1015B0006630710579F47E2F8B2F932F0DC0832F0A
:1015C0007B2F9E2F09C08E2F7B2F952F05C08E2F2E
:1015D000732F02C07E2F852F692FDF91CF911F912E
:1015E0000F91FF90EF90089541E00E94640A0895E2
:1015F00008950E94F40A0895CF93DF93762FE901AE
:10160000682F842F0E94F90A798368838A83DF9187
:10161000CF91089580917303282F269530E02115EE
:10162000310519F48170826005C02B32310524F038
:101630008170846580937303089588E090E00C9432
:10164000A02CCF92DF92EF92FF926B017C010E945F
:101650000A0BB701A60188E090E0FF90EF90DF90C1
:10166000CF900C94BE2CE3E7F3E083E080831182FB
:101670008FEF828383831482608171818281938161
:101680000C94210B8091730380FF02C0869508950E
:1016900080E0089590917703933018F49F5F9093C2
:1016A0007703882351F060917303709174038091E4
:1016B0007503909176030C94210B089581E00C94AE
:1016C0004A0B90917703992319F0915090937703E7
:1016D000882351F0609173037091740380917503B6
:1016E000909176030C94210B089581E00C94610B8A
:1016F00070E00C94E813609110018091730380FFF7
:101700000AC080910F0123E0829FC00111248858F4
:101710009C4F0C94780B80911101909112018917C4
:1017200080F7E82FF0E09F01220F331FE20FF31F35
:10173000E858FC4F1182108212828F5FF0CF909197
:10174000730390FF16C0909111012091120192171E
:1017500070F4E92FF0E0DF01AA0FBB1FEA0FFB1FB7
:10176000E858FC4F8183608342839F5FF0CF0C94E5
:101770007B0B0895CF93DF9300D01F92CDB7DEB7D8
:101780009091730390FF0AC09E012F5F3F4F0E940C
:10179000FC0A4B8169818A810E949F0B0F900F90F8
:1017A0000F90DF91CF910895CF93DF93EC01EC81FF
:1017B000F0E0EF53FD4F4491E3E7F3E06281818174
:1017C0000E94BA0B8C818F5F8C83DF91CF9108953B
:1017D000CF93DF93EC01E3E7F3E0438162818C81F7
:1017E0000E94BA0B8C818F5F8C83DF91CF9108951B
:1017F0000F931F93CF93DF9300D01F92CDB7DEB727
:101800008C018091E00181110AC09E012F5F3F4F42
:101810004FEF6FEF0E94FC0A8A818093E001F8018C
:101820008481813051F028F0823061F44091E001F0
:101830000AC08091E00140E007C06091E00140E013
:1018400080E003C040E080E060E00E949F0BF80170
:10185000848190E0019663E070E00E94C22B848353
:101860000F900F900F90DF91CF911F910F910895DE
:10187000AF92BF92CF92DF92EF92FF920F931F939E
:10188000CF93DF9300D01F92CDB7DEB7182FF62E7F
:10189000042FE22E9091730390FF6DC0E92FE6951F
:1018A000AE2FB0E0AE58BE4F8C91809344029E7F25
:1018B000923061F49E012F5F3F4F812F0E94FC0AFE
:1018C0004B8169818A810E949F0B43C0823019F449
:1018D000009176033EC0863019F41091740339C02C
:1018E0008930D9F38931A9F5E9518E2F8170D82E2D
:1018F000E695F0E0EF53FC4FA590B490C12CBB24CB
:1019000060911301C61618F52C2D30E0A29EC0017F
:10191000A39E900DB29E900D112470E00E94AE2BFC
:10192000812FD11002C0860F01C0861B909111013A
:10193000290F311DA901440F551F240F351F2858A9
:101940003C4F402F6F2D0E94FC0AC394D9CF0E94B8
:101950007B0B10937403F092750300937603EE20D3
:1019600051F06091730370917403809175039091AD
:1019700076030E94210B0F900F900F90DF91CF9173
:101980001F910F91FF90EF90DF90CF90BF90AF909D
:101990000895E3E7F3E09181282F4381628188E095
:1019A000890F0C94380C81E00C94C90CE3E7F3E048
:1019B0009181282F4381628188EF890F0C94380C24
:1019C00081E00C94D60CE3E7F3E0628128E0620F3B
:1019D00008F46FEF282F438181810C94380C81E04B
:1019E0000C94E30CE3E7F3E0628128E0621B08F467
:1019F00060E0282F438181810C94380C81E00C94A5
:101A0000F20CE3E7F3E0438128E0420F08F44FEFE4
:101A1000282F628181810C94380C81E00C94010D97
:101A2000E3E7F3E0438128E0421B08F440E0282F7D
:101A3000628181810C94380C81E00C94100D20E0BF
:101A40000C94380CFF920F931F93CF93DF93EC010C
:101A5000F12C0FEF10E060911301F616F0F4809175
:101A600011012F2D30E0280F311DC901880F991F5A
:101A7000280F391F28583C4F70E0C8010E94C22B24
:101A8000962F8C814091760360917503F99E800DAD
:101A900011240E94FC0AF394DECF0E947B0B9A81F2
:101AA0008C8190FF02C08F5F01C081508C83DF91D9
:101AB000CF911F910F91FF900895AF92BF92CF9257
:101AC000DF92EF92FF920F931F93CF93DF93FC016E
:101AD000828180FF02C00FEF01C001E010E042E10F
:101AE000A42E80911301181708F043C080911101B2
:101AF000C12ED12CE601C80FD11DCE01880F991F30
:101B0000C80FD91FC858DC4F198218821A8234E0D6
:101B1000E32EF12CB12C8091E2018B0D83312CF05E
:101B20006A2D0E94A02B892F05C087FF03C09091CA
:101B30001301890F082E000C990BC816D90691F4D1
:101B4000809176038E9DA0018F9D500D1124559597
:101B50004795559547959E01609175038091740353
:101B60000E94FC0AB00EF1E0EF1AF108A1F61F5F27
:101B7000B8CF0E947B0B8091E201013031F48111DA
:101B800002C080911301815007C090E001966091DE
:101B9000130170E00E94C22B8093E201DF91CF918C
:101BA0001F910F91FF90EF90DF90CF90BF90AF907B
:101BB0000895CF938091110190911201891770F4CB
:101BC000E82FF0E09F01220F331FE20FF31FE858C8
:101BD000FC4F1182108212828F5FF0CFC0E06091C3
:101BE0001301C617C0F5EC2FF0E070E0CF010E94A2
:101BF000C22B20911101820F2091E101022E000CD5
:101C0000330B90E0E217F307CCF020910E01022E87
:101C1000000C330B2E173F078CF09C01220F331F53
:101C2000820F931F9C0128583C4F4091760360918E
:101C30007503809174030E94FC0A0BC0FC01EE0F37
:101C4000FF1F8E0F9F1FFC01E858FC4F118210826E
:101C50001282CF5FC4CF0E947B0B20910D01809137
:101C6000E101820F8093E10190910E01920F909318
:101C70000E0119165CF4082E000C990B409113010B
:101C800050E041505109841795071CF0219520938D
:101C90000D01CF9108958F929F92AF92BF92CF92F4
:101CA000DF92EF92FF920F931F93CF93DF938C01FC
:101CB000FC014481C42FD0E09E01DE010E94062C6D
:101CC0009B01AC010E941C2C6B017C01E0E2F0E066
:101CD000EC1BFD0BA5E5B0E09B01AC010E941C2CA8
:101CE0004B015C019F01DF010E94FE2B9B01AC01B7
:101CF0000E94272C9B01AC012C0D3D1D4E1D5F1D2C
:101D0000C501B4010E94D62BC22FD22F2A3228F44B
:101D1000F3E02F9F900111240DC025E530E02C1B2E
:101D20003109C901880F991F280F391F37FF02C0D9
:101D30002F5F3F4F35952795C22FC095F12C85E534
:101D4000E82EED1A80911301F816C8F4F1FC02C0D8
:101D50008E2D01C08D2F909111012F2D30E0290F74
:101D6000311DA901440F551F240F351F28583C4F22
:101D70004C2F609175030E94FC0AF394E3CF0E94FC
:101D80007B0BF8018481811102C091E003C0803295
:101D900019F49FEF90930C0190910C01890FF801B9
:101DA0008483DF91CF911F910F91FF90EF90DF908F
:101DB000CF90BF90AF909F908F9008950F931F93F7
:101DC000CF93DF93EC0100E010E080911301282F06
:101DD00030E00217130724F5909111019801290FA3
:101DE000311DA901440F551F240F351F28583C4FA2
:101DF000869590E04C81081719071CF4442331F0B4
:101E000002C0411103C04091760301C040E06091DF
:101E10007503809174030E94FC0A0F5F1F4FD5CF9A
:101E20000E947B0B8C8190E00196817099278C83B6
:101E3000DF91CF911F910F9108957F928F929F9282
:101E4000AF92BF92CF92DF92EF92FF920F931F93C8
:101E5000CF93DF93FC018280748081E08483E1EC86
:101E6000F2E09490E0E4F3E0E491A12CF5E0BF2EE1
:101E7000CC24CA94D12CE9190E2F10E080911301C3
:101E8000A81608F0A2C0EA2CF12C22E0281568F070
:101E9000BE9CF001BF9CF00D1124ED51FE4F8091CE
:101EA0007403808380917503818371100AC0BE9C86
:101EB000F001BF9CF00D1124ED51FE4F13821282F0
:101EC0006AC0BE9CE001BF9CD00D1124CD51DE4FF5
:101ED0008B818823F9F081508B832FEF829FC00183
:101EE00011246C8170E00E94AE2BFB01FF27EF53A1
:101EF000FD4F8491E82FE9192FEFE29FC0011124D3
:101F0000B8010E94AE2B80917603689FB001112426
:101F10007A8341C00E947B2C20917603269521581C
:101F200030E0A901440F551F322F2227240F351FFF
:101F3000232F33278217930774F582E0881588F4DE
:101F40000E947B2CB6010E94C22B88830E947B2CAE
:101F5000209175032695622F70E00E94C22B280FF6
:101F60002983BE9CF001BF9CF00D1124ED51FE4F62
:101F7000128280917603843120F0893C18F088EC3D
:101F800001C084E1BE9CF001BF9CF00D1124ED5115
:101F9000FE4F84838383809111019701280F311DA7
:101FA000C901880F991F280F391F28583C4FBE9C24
:101FB000F001BF9CF00D1124ED51FE4F4281618173
:101FC00080810E94FC0AA39459CFDF91CF911F9189
:101FD0000F91FF90EF90DF90CF90BF90AF909F90C8
:101FE0008F907F900C947B0BE3E7F3E080818E7FF2
:101FF000808360817181828193810E94210B109284
:1020000045022FEF80E792E0215080409040E1F7B9
:1020100000C000000C947B0B60917303669570E028
:102020004BE050E084E191E00E948B2C892B19F465
:1020300081E0809345020E943D2490933E0280936C
:102040003D0208959091730390FF35C09170811106
:1020500002C0926006C08B3210F0946502C0880FF7
:10206000982B90937303662351F0609173037091E2
:10207000740380917503909176030E94210B609107
:102080007303669570E04BE050E084E191E00E94BC
:102090008B2C892B19F01092450202C00E940C1063
:1020A00081E08093400240917603609175038091B6
:1020B00074030C941F0D0895682F909173039695E7
:1020C00081E0890F8B3208F081E00C94221081E0CE
:1020D0000C945C10682F9091730396958FEF890F85
:1020E00009F48AE20C94221081E00C946A1061E0F9
:1020F0000C942210E3E7F3E0808181608083869571
:102100000C9477108091730380FD0C94F40F0C9461
:102110007A1060E00C9422108091430281112EC04D
:102120000E944322811104C00E94EB220E94330BC3
:102130000E941D0B60937303709374038093750367
:10214000909376036E7F61F40E94330B0E941D0B07
:102150006093730370937403809375039093760375
:102160000E940A0B109245028091730380FF03C006
:1021700086950E94891081E08093430208950F9311
:102180001F93CF93DF9380914502882309F495C074
:1021900080914402E0917303E695E81BE0933F02CF
:1021A000823049F4F0E0E354FD4FE491CE2FD0E0CB
:1021B00004ED1BE059C0863049F4F0E0E654FD4FD1
:1021C000E491CE2FD0E008EE1BE04EC0893051F4F0
:1021D000E695F0E0E954FD4FE491CE2FD0E002E225
:1021E0001DE042C08F3051F4E695F0E0EC54FD4F15
:1021F000E491CE2FD0E00DE51DE036C0853149F4E5
:10220000F0E0EF54FD4FE491CE2FD0E009ED1DE05A
:102210002BC08831D9F0833239F4EFEAF2E0C5916E
:10222000D49108EF1BE020C08432A9F08532C1F4BC
:102230008E2F63E00E94942BE92FF0E0E455FD4FD0
:10224000E491CE2FD0E00DE11FE00EC0C8E2D0E057
:102250000BE41EE009C0C4EFD1E00EED1EE004C0A7
:10226000C0EDD7E008EF1AE080914002882361F0CA
:10227000109240020E943D2490933E0280933D02C2
:1022800010924202109241020E943D24E0913D02D0
:10229000F0913E028E1B9F0B8F3F9F4770F4EC0F17
:1022A000FD1FF0933E02E0933D028DE392E0F801C2
:1022B000DF91CF911F910F910994DF91CF911F91E1
:1022C0000F910895882311F0FA0101C0FB010994D0
:1022D000CF93DF93C82FD62F0E94420B8C1740F06C
:1022E0000E94420B8D1720F4DF91CF910C94671060
:1022F0008C2FDF91CF910C9477101F93CF93DF93A6
:10230000FB011281112309F4C1C0EC010E947C2160
:102310008272CD3CFCE5DF0709F49BC008F043C0A6
:10232000C73CECE5DE0709F480C0D8F4C43C9CE56A
:10233000D90709F46DC038F4C33CDC4509F0A7C0E7
:102340000E9482106BC0C53C9CE5D90709F468C0A7
:10235000C63CDC4509F09BC040EE5CE063ED7CE0F0
:102360005BC0CA3CFCE5DF0709F469C070F4C83CF7
:10237000ECE5DE0709F45EC0C93CDC4509F087C026
:102380004FEE5CE06EEF7CE047C0CB3C9CE5D907AC
:1023900009F45AC0CC3CDC4509F079C045E75BE064
:1023A0006EE57BE039C0C23DFCE5DF0709F45EC0A5
:1023B00098F4CF3C9CE5D90709F452C008F44EC00C
:1023C000C03DFCE5DF0709F44EC0C13DDC4509F026
:1023D0005EC06EE089E057C0C53D9CE5D90709F4B1
:1023E0004BC058F4C33DFCE5DF0709F442C0C43DCF
:1023F000DC4509F04CC088E143C0C63D9CE5D907E7
:10240000F1F1CE35DD4509F042C06AE285E23BC01C
:1024100044E750E167E670E10E94621110E037C0C6
:1024200047E650E164E770E1F7CF43ED5CE060EE32
:102430007CE0F2CF4EEF5CE06FEE7CE0EDCF4CE164
:102440005DE06DE07DE0E8CF4DE05DE06CE17DE0DA
:10245000E3CF4EE55BE065E77BE0DECF81E010C0D7
:1024600065E082E010C068E086E00DC064E18FE0C6
:102470000AC067E185E107C062E289E104C083E246
:102480000E947710CBCF0E946811C8CF11E0812F36
:10249000DF91CF911F91089586E090E00C94982CE5
:1024A000682F86E090E00C94AC2C8091AE03847091
:1024B00089628093AE030C9450120E9443228111D2
:1024C00004C00E94EB220E9455120E944C1280937D
:1024D000AE03282F26952695269530E02630310527
:1024E00024F0877088628093AE038091AE0380FFF2
:1024F00004C086958695869501C080E00C946E1385
:102500002091AE03822F869586958695482F50E0C0
:102510004530510554F48F5F982F990F990F990FFB
:10252000822F8770892B8093AE038091AE038160E8
:102530008093AE030E9450128091AE0386958695DB
:1025400086950C946E138091AE03982F9695969570
:102550009695A1F0915E990F990F990F8770892B2D
:102560008093AE03887F91E009F490E08091AE0300
:1025700090FB80F98093AE030E9450128091AE03CD
:102580008695869586950C946E138091AE0380FD9A
:1025900013C081608093AE03813019F489E0809389
:1025A000AE038091AE030E9450128091AE038695D7
:1025B000869586950C946E1308958091AE0380FFE6
:1025C00008C08E7F8093AE030E94501280E00C946E
:1025D0006E1308958091AE0380FD0C94DD120C946F
:1025E000C5129091AE03892F8695869586958F5F4B
:1025F0008F719770863038F4880F880F880F892B79
:102600008093AE0302C09093AE038091AE03887FA7
:1026100091E009F490E08091AE0390FB80F9809303
:10262000AE030E9450128091AE03869586958695E2
:102630000C946E13863008F085E09091AE0397708D
:10264000282F220F220F220F922B9093AE03987FF8
:1026500021E009F420E09091AE0320FB90F99093E3
:10266000AE030C946E130E941A138091AE030C9467
:1026700050129C01FB018281882349F12E3BFCE52D
:102680003F07C9F040F42C3BECE53E0769F02D3BD9
:102690003C4561F00895203C9CE5390791F070F0CD
:1026A000213C3C4589F0089585E001C080E00E940E
:1026B000331380E008950E94A312FBCF0E94801282
:1026C000F8CF0E94EA12F5CF0E94F112F2CF81E01A
:1026D0000895269A2E9808952E980895CF92DF9205
:1026E000EF92FF92CF93C82F863050F4811109C02A
:1026F000809180008F7D809380000E946C1306C0C3
:10270000C5E0809180008062809380002C2F30E0B3
:10271000AFEFBFEF0E94062C25E030E040E050E034
:102720000E94D62BB42FA32F922F8827492F5A2FE0
:102730006B2F7727CA014C3724E1520728F469E050
:1027400070E00E94AE2B29C0DB01CA018A50974D70
:10275000AF4FBF4F6627782F892F9A2F25EF38E28A
:1027600041E050E00E94D62B69017A01CA01B9010B
:102770000E94842B9B01AC01C701B6010E94842BEF
:10278000BB27A92F982F872F009721E0A207B1051B
:1027900011F0BC0102C06FEF7FEF70938B0060936C
:1027A0008A00CF91FF90EF90DF90CF900895089529
:1027B0000E94691382E28093800089E18093810006
:1027C0008FEF9FEF90938700809386000C945D12AB
:1027D0006A9A2EB12B7F3EB134604FB7F894FC015A
:1027E000CB01880F991F680F791F6E0F7F1FE617A7
:1027F000F70789F0819198E03EB9000000C087FF9B
:102800002EB9880F000000C000C000C02EB900C063
:102810009A9591F7ECCF4FBF8FE594E00197F1F7D0
:1028200000C0000008950F931F93CF93DF93C42F30
:10283000D22FFC0182818823C9F0409348020E9474
:102840003D24909347028093460280E28C0F8830AB
:1028500008F057C0C77081E001C0880FCA95EAF739
:10286000DF91CF911F910F910C9402198091480232
:10287000481330C080914602909147020E9455242F
:10288000883C910538F510E21D0FCD17B9F080E2B4
:102890008C0F883040F4C77081E001C0880FCA9562
:1028A000EAF70E940919183028F581E09D2F9770EA
:1028B00001C0880F9A95EAF70E940219802F0E94A2
:1028C000F9181830F0F4D77081E001C0880FDA955C
:1028D000EAF70AC080E28C0F883098F4C77081E074
:1028E00001C0880FCA95EAF7DF91CF911F910F9130
:1028F0000C940919802FDF91CF911F910F910C94A7
:10290000F918DF91CF911F910F9108950F939C01BA
:10291000CB01243F4CE5340731F188F4293DFCE537
:102920003F07D9F02A3D4CE5340779F1283D3C4575
:10293000A9F506E221EE41EE68ED7CE52BC0263FCD
:10294000FCE53F07E1F0A8F0273F3C4539F507E2F9
:1029500025EE46EE67EF7CE51DC007E225EE45EE6D
:1029600069ED7CE517C006E221EE40EE64EF7CE500
:1029700011C007E225EE44EE65EF7CE50BC006E2F0
:1029800021EE42EE66EF7CE505C008E221E045EE6F
:102990006AED7CE50E94131480E008C0FC0182818E
:1029A000882319F01092480201C081E00F91089528
:1029B000CF93DF93EC01FB018281882309F41FC1CF
:1029C000C230FCE5DF0708F41BC1C6319CE5D9071E
:1029D00038F09E012B5F3C452930310508F010C1CD
:1029E0000E9456229093420380934103C031ECE54C
:1029F000DE0709F4C3C008F041C0C8308CE5D80731
:102A000009F49AC0F0F4C430ECE5DE0709F487C09D
:102A100068F4C2308CE5D80709F477C0C330DC45D0
:102A200009F0E3C080914103826076C0C630ECE5D6
:102A3000DE0709F46EC008F07BC080914103886016
:102A40006BC0CC308CE5D80709F485C068F4CA3077
:102A5000ECE5DE0709F474C008F079C00E948F1B12
:102A600080914103806858C0CE308CE5D80709F4C6
:102A700076C008F07FC0809141038BC0CC3FECE56D
:102A8000DE0709F44FC018F5C3318CE5D80709F407
:102A90007DC078F4C131ECE5DE0709F473C0C231C2
:102AA000DC4509F0A2C00E948F1B809141038F7703
:102AB00033C0C5318CE5D80709F472C008F486C06C
:102AC000CB3FDC4509F091C0809142033EC0C11567
:102AD000FDE5DF0709F45FC058F4CE3F9CE5D90758
:102AE00009F444C008F43FC08091420382602DC0C5
:102AF000C230FDE5DF0709F475C008F45DC0C330DE
:102B0000DD4509F072C080E06EC0809141038160B4
:102B100003C08091410380618093410366C080912E
:102B2000410311C0809142038260809342035DC0E3
:102B3000809141038062F0CF809141038064ECCFAB
:102B40008091410388608460E7CF8160EECF8091FF
:102B500041038E7FE1CF809141038D7FDDCF809156
:102B60004103877FD9CF8091420318C080914203EF
:102B70008D7FDBCF809141038F7ECECF809141034B
:102B80008F7DCACF809141038F7BC6CF8091410357
:102B9000877F8B7FC1CF809142038D7F8E7FC5CF92
:102BA0008091410382FB222720F991E0922790FB3C
:102BB00082F990FB83F9B0CF80914203982F9095D2
:102BC00091708E7F892B90FB81F9AFCF0E948F1B74
:102BD0008091410387FB222720F991E0922790FB07
:102BE00087F99ACF81E00E94ED2280914103909174
:102BF00042030E9467220E948F1B80E001C081E097
:102C0000DF91CF910895CF93DF9386319C4541F5B5
:102C1000EB010E947C21982F8A8120911F01309125
:102C20002001882379F09A7A81E009F480E080938A
:102C30004902911102C069E201C065E3C9010E9425
:102C400088230AC080914902811102C069E201C053
:102C500065E3C9010E9493230E94CE2180E001C058
:102C600081E0DF91CF91089590934F0280934E02BF
:102C70000895E0914E02F0914F02309721F00190BB
:102C8000F081E02D099480E00895E0914E02F091EA
:102C90004F02309799F020912B01222359F0209177
:102CA000410327FF07C0DC012C9111962C9311974B
:102CB00025E02C930280F381E02D09940895E091A2
:102CC0004E02F0914F02309739F022E0DC012C9354
:102CD0000480F581E02D0994089520914C023091F3
:102CE0004D022817390771F090934D0280934C02E2
:102CF000E0914E02F0914F02309721F00680F7816B
:102D0000E02D0994089520914A0230914B02281732
:102D1000390771F090934B0280934A02E0914E0282
:102D2000F0914F02309721F00084F185E02D099455
:102D300008950E94492460936D0270936E028093FF
:102D40006F02909370026093690270936A0280939D
:102D50006B0290936C02089585B7806885BF85B734
:102D6000806885BF089581E008950C94B316089596
:102D70000C94B7160C94B7160C94BA160C94B7169C
:102D80000C94BE160C94B7160E94AC168BE392E21C
:102D90000E94AE240E94C2160C94C0160E94B8165F
:102DA0000C94B7160E9434240E94D3060E945D1230
:102DB0000E948C100C94BC166F927F928F929F92FF
:102DC000AF92BF92CF92DF92EF92FF920F931F9339
:102DD000CF93DF93CDB7DEB72A970FB6F894DEBF57
:102DE0000FBECDBF0E94FB0681110E94991631E5EE
:102DF000832E32E0932E00E010E0C02E802F0E9440
:102E0000A1065C01F401619071904F01682679265A
:102E100061147104B1F40F5F1F4F0C30110569F795
:102E20008FEF89838A831B820E943D248160782FE3
:102E30009D838C8349815A816B818D810E94961775
:102E40003AC080911D0381FD0E94AA06D12CEE2478
:102E5000E394F12CC3018E219F21892B29F10E943B
:102E6000B5168823A9F0DE82CF82AE20BF2081E094
:102E7000AB2809F480E088870E943D248160782F88
:102E80009A8789874E815F8168858A850E94961717
:102E9000000F111FF801EF5AFD4F80819181E82644
:102EA000F926F182E08207C0D394EE0CFF1CF9E012
:102EB000DF12D0CFB0CF0E94BF100E94D7130E9464
:102EC00043090E943916909150028917D1F00E944F
:102ED0003916809350022A960FB6F894DEBF0FBEC3
:102EE000CDBFDF91CF911F910F91FF90EF90DF90B9
:102EF000CF90BF90AF909F908F907F906F900C94E9
:102F00004E042A960FB6F894DEBF0FBECDBFDF91F8
:102F1000CF911F910F91FF90EF90DF90CF90BF90D6
:102F2000AF909F908F907F906F900895DF92EF9277
:102F3000FF920F931F93CF93DF93CDB7DEB72B97FD
:102F40000FB6F894DEBF0FBECDBFF42E052F162F9F
:102F5000E72ED82E61110E949C21FE01319686E059
:102F6000DF011D928A95E9F77E2D4F2D502F612F9D
:102F70008D2D9E810E94481E2B960FB6F894DEBFC1
:102F80000FBECDBFDF91CF911F910F91FF90EF90BA
:102F9000DF900895FC01808191810E941C21089599
:102FA000CF93882309F4A4C0C82F8238C1F40E94AB
:102FB000391681FD9DC069E380911F019091200128
:102FC0000E9488230E94CE212FEF81EE94E02150B1
:102FD00080409040E1F700C0000069E319C08338E9
:102FE00001F50E94391680FD83C063E580911F01C1
:102FF000909120010E9488230E94CE212FEF81EE24
:1030000094E0215080409040E1F700C0000063E56B
:1030100080911F01909120010E949323CF910C94E5
:10302000CE218438C1F40E94391682FD61C067E464
:1030300080911F01909120010E9488230E94CE213F
:103040002FEF81EE94E0215080409040E1F700C0E6
:10305000000067E4DDCF8CEF8C0F813AD0F46C2F49
:1030600080911F01909120010E940823882349F03C
:103070006C2F80911F01909120010E9493230E9448
:10308000CE216C2F80911F01909120010E948823F6
:10309000C5CF80E28C0F883048F4C77081E001C052
:1030A000880FCA95EAF70E947F21B8CFEBE5EC0FB5
:1030B000E33040F4F0E0E553FE4F808190E0CF91A3
:1030C0000C946D16E8E5EC0FE73150F4F0E0EE0FEC
:1030D000FF1FE356FE4F80819181CF910C948316A0
:1030E000CD3E30F08C2F0E945308CF910C942509CF
:1030F000CF910895882309F464C0823879F40E943E
:10310000391681FF5EC069E380911F019091200113
:103110000E9488230E94CE2169E310C08338B1F455
:103120000E94391680FF4DC063E580911F01909188
:1031300020010E9488230E94CE2163E580911F0117
:10314000909120010E9493230C94CE21843879F42D
:103150000E94391682FF35C067E480911F0190916B
:1031600020010E9488230E94CE2167E4E7CF9CEFD4
:10317000980F913A10F4682FE1CF90E2980F9830B1
:1031800050F4877091E001C0990F8A95EAF7892F72
:103190000E948521D9CF9BE5980F933020F480E0E1
:1031A00090E00C946D1698E5980F973120F480E02C
:1031B00090E00C9483168D3E20F00E94AE080C9493
:1031C000250908951F93CF93DF93182FEB010E94D9
:1031D000D017209741F08FE99FE00197F1F700C0E9
:1031E00000002197F6CF812FDF91CF911F910C9492
:1031F0007A18893319F060E070E002C060E570E091
:103200000C94E218882321F00E947F210C94CE2197
:103210000895882321F00E9485210C94CE210895E1
:10322000CF92DF92EF92FF920F931F93CF93DF9392
:103230007C01062FC72FFC01D281158112951F70CA
:103240000E945421882399F0DD2389F08C2F807F00
:10325000803421F080E2800F883048F082E00E94C4
:103260001E220E94542191E0D82ED92601C0D12CD3
:10327000CC2EC2948FE0C8228C2D90E0FC01EA5A3B
:10328000FF4F0C94F82B8C2F807FCF70882311F088
:10329000C295C07FDD2399F0CC2309F48DC180E273
:1032A000800F883010F0011104C08C2F0E947F2104
:1032B00003C08C2F0E948F210E94CE217DC1802FC0
:1032C0000E947A18CC2309F49CC180E2800F8830D8
:1032D00010F0011104C08C2F0E94852103C08C2F97
:1032E0000E9495210E94CE218CC18C2F807FCF70AF
:1032F000803211F0C295C07F002319F00130C9F06F
:1033000022C0DD2371F0112341F0113031F40E940D
:10331000AF218C2B0E94B72174C10E94AF218C2B4E
:103320001DC0112319F0113009F46BC10E94C42192
:1033300025C0DD2321F0163008F063C10EC0153022
:1033400008F05FC11BC0DD2361F0112331F0F701EC
:10335000858180FF31C18F7085838C2F0E94021977
:1033600050C1112359F0093309F037C1FFEF27EE9F
:1033700083E0F15020408040E1F72DC18C2F0E9466
:1033800009193FC18C2F86958695837019F081307D
:1033900061F037C1DD2321F0802F9C2F937002C094
:1033A00080E090E00E946D1634C1DD2321F0802F73
:1033B0009C2F937002C080E090E00E94831629C188
:1033C000802FDD2319F00E94530802C00E94AE082E
:1033D0000E9425091EC18C2F837009F045C0D111B0
:1033E00014C1402F429546954770440F440F602FFB
:1033F0006F70862F90E0A0E0B0E0042E04C0880F2C
:10340000991FAA1FBB1F0A94D2F704FF10C00FE038
:1034100010E020E030E004C0000F111F221F331F16
:103420004A95D2F7009510952095309503C000E09D
:1034300010E09801C695C695C370BC01CD01602B04
:10344000712B822B932BC23049F058F4C13019F004
:103450000E94991FDAC00E94871FD7C00E94AB1F2D
:10346000D4C00E94851FD1C0DD2319F08C2F81703C
:1034700001C08695882309F4C8C0402F429546951F
:103480004770440F440F602F6F70862F90E0A0E0CC
:10349000B0E0042E04C0880F991FAA1FBB1F0A9416
:1034A000D2F704FF10C00FE010E020E030E004C0CD
:1034B000000F111F221F331F4A95D2F70095109558
:1034C0002095309503C000E010E09801C695C695A0
:1034D000C370BC01CD01602B712B822B932BC230AA
:1034E00049F058F4C13019F00E945E208EC00E944D
:1034F0004C208BC00E94702088C00E94BF1F85C0D6
:10350000CF70DD2339F08C2F0E94E51F802F0E94A1
:1035100002197BC0802F0E9409198C2F0E9406205F
:1035200074C0023F01F128F4003F41F0013FA1F0D7
:103530003FC0033FF9F0043F39F13AC0DD2341F0C9
:10354000153008F05EC08C2F8F710E942B2059C05F
:10355000163008F056C0F7CFDD2339F08C2F8F716D
:103560000E94E51F4EC0DD23C9F38C2F8F710E948E
:10357000062047C0DD2329F08C2F8F710E94D01FB9
:1035800040C00E94CB1F3DC0DD2349F0CF718C2F7E
:103590000E94E51F63E08C2F0E94032232C081E06D
:1035A0000E941E22123068F182E00E941E2229C071
:1035B000DD2331F0112391F2802F0E94D01721C01A
:1035C000112399F2093349F49FEFE7EEF3E09150AC
:1035D000E040F040E1F700C00000802F0E947A1820
:1035E00010C04C2F4F70602FC7010E9457040E94DB
:1035F000F61E0FC04C2F4F70602FC7010E945A0457
:1036000008C088EF8C0D843020F40E9439160E9487
:103610004E04DD20C9F00E94502180FD15C0F70145
:1036200012820E944A210E94E51FC7010E94451B89
:103630000E944A21DF91CF911F910F91FF90EF904F
:10364000DF90CF900C940620DF91CF911F910F91C6
:10365000FF90EF90DF90CF9008950F931F93CF933B
:10366000DF93EC01688179818A810E9427218C0196
:103670000E9482200E94731FB801CE010E9410197F
:10368000DF91CF911F910F910895CF93DF93EC01BC
:10369000988189812B813C81232B31F08F3F31F43C
:1036A00081E09F3F19F403C081E001C080E080FD0C
:1036B00019C0CE010E94CA0381110CC00E9454217E
:1036C000882381F08A81882369F082E0DF91CF919D
:1036D0000C941E22CE010E942D1BCE01DF91CF91B2
:1036E0000C94A503DF91CF91089580E090E00E94B3
:1036F0006D1680E090E00E9483160E949C210E943B
:10370000AC210E94CE210E94560A0C94250980917A
:103710001F01909120010E949E230C94751B0E9412
:103720008C210C94871BE92FE295EF704E2F50E00F
:10373000FA013297EE30F105B0F4EA59FF4F0C94DC
:10374000F82B803F91F018F4883E68F40EC0843F57
:1037500051F40BC0883E48F0813F29F406C093FB2A
:10376000882780F9089580E0089581E008950E94F7
:103770001C210E94931B0895CF93DF9300D000D0AB
:103780001F92CDB7DEB70F900F900F900F900F9054
:10379000DF91CF910895CF93DF9300D000D000D078
:1037A000CDB7DEB726960FB6F894DEBF0FBECDBFFD
:1037B000DF91CF9108951F93CF93DF93C091720251
:1037C00016E080917302C81799F0D0E01C9FF001B9
:1037D0001D9FF00D1124EC58FD4F408151816281F5
:1037E0007381848195810E94CB1B2196C770E9CF9C
:1037F000DF91CF911F9108954091A4025091A502AD
:103800006091A6027091A7028091A8029091A902EE
:103810000C94CB1B0F931F93CF93DF938091A9023E
:1038200082958F7009F05DC08091A602882309F40B
:1038300058C080917202109173026091A40270913D
:10384000A502C091A702D091A80291E06F3F09F0B4
:1038500090E0292F06E0811709F443C0209721F05A
:103860007F3F21F030E003C031E001C0322F90E013
:1038700030FD34C0089FF001099FF00D1124DF01D5
:10388000AC58BD4F11963C911197371327C03C910E
:10389000361324C012963C91129731111FC0139613
:1038A0004D915C9114974C1B5D0B483C5105B0F455
:1038B0008091A9028F7080618093A902E758FD4F23
:1038C00080818F708061808384EA92E00E94451B32
:1038D000DF91CF911F910F910C94DB1B01968770A4
:1038E000BACFDF91CF911F910F9108959F92AF9220
:1038F000BF92CF92DF92EF92FF920F931F93CF93DD
:10390000DF93CDB7DEB761970FB6F894DEBF0FBE79
:10391000CDBF8C0185E0F801DE011D9601900D926E
:103920008A95E1F7F80140815181E2809091A402EB
:103930006091A5022091A7023091A80221153105BE
:1039400031F06F3F31F481E09F3F19F403C081E013
:1039500001C080E0F82FF1709F2E80FD46C1F80174
:10396000A380B48084EAC82E82E0D82EF090A6020C
:10397000F501E21BF30BFF2009F4DFC08091A902DF
:10398000E83CF10508F09BC0282F207F09F052C0C9
:10399000561313C0491311C0FE2CE1100EC08F70D6
:1039A00080618093A9020E94FC1BC6010E94451BF6
:1039B0008091A902F801858358C1AB2831F05F3F9F
:1039C00031F481E04F3F19F403C081E001C080E091
:1039D00080FD03C081E08E2502C080E090E0F82FDA
:1039E000F170FF2E80FF1CC0809172022091730243
:1039F00036E0821709F417C190E0389FF001399F33
:103A0000F00D1124EC58FD4F6181561306C0608102
:103A1000461303C06281E61203C001968770E9CFA6
:103A2000FE2CEE2009F421C18091A90281608093CF
:103A3000A9025AC0561306C0491304C0E11002C0BF
:103A4000F8019FC04D875E878D859E850E94B71BBC
:103A5000882379F1EE2069F12091A902822F8295C5
:103A60008F7090E0029774F08091A4029091A5026B
:103A700098878F831986BB86AA862C87CE010796E6
:103A80000E94451B86E0F801A4EAB2E001900D9285
:103A90008A95E1F70E940A1C0E94FC1B0DC0561774
:103AA00029F14D875E878D859E850E94B71B811108
:103AB0002CC0C8010E94451BFF24F394D6C0282FB8
:103AC000207F69F77A2DB98AA88A6E2D89890E948C
:103AD000BC1B84EA92E00E94451B86E0F60111922D
:103AE0008A95E9F70E94FC1BF12CBFC04913D9CF7E
:103AF000E110D7CFF8018583C8010E94451B86E0FD
:103B0000F60111928A95E9F7B0C0EE2091F220916A
:103B1000A902822F82958F7090E002970CF4B2CFA9
:103B20008091A4029091A5029A8389831B82BD8211
:103B3000AC822E83CE010196A3CFE83CF10508F0BC
:103B400047C0FE2CEE2009F4B4CF561330C0491301
:103B50002EC02091A90220FD21C0822F82958F7056
:103B6000482F50E041155105C9F0F80125834F3029
:103B7000510541F08F5F982F9295907F822F8F7023
:103B8000892B8583C8010E94451B86E0F801A4EAC1
:103B9000B2E001900D928A95E1F742C086E0F8010B
:103BA000A4EAB2E001900D928A95E1F75EC04D87DC
:103BB0005E878D859E850E94B71B811163CF8091A2
:103BC000A90281608093A902C8010E94451B4DC0D3
:103BD0007A2DB98AA88A6E2D89890E94BC1B86E03D
:103BE000F60111928A95E9F71BC0EE2009F461CF26
:103BF0004D875E878D859E850E94B71BF82E882392
:103C000009F457CF86E0F801A4EAB2E001900D92E2
:103C10008A95E1F784EA92E00E94CA170E940A1C82
:103C20000E94FC1B22C04D875E878D859E850E9469
:103C30001C21292F22952F70223028F49F7039F0F3
:103C4000811105C00BC0243028F49F7049F4805EB8
:103C5000883020F0C8010E94451B9F2CF92C05C01C
:103C6000F8019581907F99F7F9CF8F2D61960FB666
:103C7000F894DEBF0FBECDBFDF91CF911F910F91A2
:103C8000FF90EF90DF90CF90BF90AF909F900895FE
:103C90001F93CF93DF93CDB7DEB72C970FB6F89471
:103CA000DEBF0FBECDBF4F83588769877A878B876A
:103CB0009C87CE0107960E94761C8823D1F09F81B5
:103CC00088852A853B85232B31F08F3F31F481E0B5
:103CD0009F3F19F403C081E001C080E080FD47C030
:103CE0004F81588569857A858B859C850E94CB1B81
:103CF0003EC086E0FE013796DE01119601900D92DE
:103D00008A95E1F7FF81E8856A857B8561157105F4
:103D100031F0EF3F31F481E0FF3F19F403C081E05F
:103D200001C080E080FD23C02091730230E0C90112
:103D30000196877099274091720250E08417950789
:103D4000F1F1F983EA837D836C8396E0929FD00141
:103D5000939FB00D1124AC58BD4FFE0131960190D8
:103D60000D929A95E1F7809373020E94DB1B16E097
:103D70008091720290917302891771F1189FC001AE
:103D800011248C589D4F0E94761C882329F1E091C4
:103D900072021E9FF0011124EC58FD4F40815181A9
:103DA00062817381848195810E94CB1B8091720214
:103DB00090E001968770992780937202D9CF0E9474
:103DC0008F1B1092730210927202E4EAF2E086E016
:103DD000DF011D928A95E9F72C960FB6F894DEBFA5
:103DE0000FBECDBFDF91CF911F910895EF92FF924B
:103DF0000F931F93CF93DF938C01892B09F46CC031
:103E0000F12CEE24E394E8012196F80184918437A3
:103E100040F4843008F051C0813081F0823019F1D3
:103E20005BC0853709F444C0A8F19CE7980F903730
:103E300008F052C08F770E947A1841C00E5F1F4F62
:103E4000FE01849190E2980F983050F48770FE2D17
:103E500001C0FF0F8A95EAF78F2F0E949F2114C09F
:103E60000E94D0172DC00E5F1F4FFE01849190E27B
:103E7000980F983060F48770FE2D01C0FF0F8A956F
:103E8000EAF78F2F0E94A5210E94CE2119C00E941F
:103E90007A1816C00E5F1F4FFE01C491CC2381F02B
:103EA0008FE99FE00197F1F700C00000C150F6CF05
:103EB0000E5F1F4FFE01F49003C00E94D0178E01C9
:103EC0008F2D882309F49FCFEFE9FFE03197F1F7B9
:103ED00000C000008150F5CFDF91CF911F910F916D
:103EE000FF90EF900895089508950C94741F0C941A
:103EF000751F0E94771F6093F4027093F502809300
:103F0000F6029093F7020C94751B0C94791F0F9393
:103F10001F930091F4021091F5022091F602309166
:103F2000F702602B712B822B932B1F910F910C9416
:103F3000791F0F931F930091F4021091F5022091C5
:103F4000F6023091F70260237123822393231F919D
:103F50000F910C94791F0F931F930091F40210910D
:103F6000F5022091F6023091F7026027712782272F
:103F700093271F910F910C94791F0C94741F0E942A
:103F8000BD1F6093F0027093F1028093F202909350
:103F9000F3020C94751B60E070E0CB010C94BF1F22
:103FA0000F931F9341E050E060E070E08A019B01B5
:103FB00004C0000F111F221F331F8A95D2F7C901B9
:103FC000B8011F910F910C94BF1F0F931F9341E0F5
:103FD00050E060E070E004C0440F551F661F771F7B
:103FE0008A95D2F78091F0029091F102A091F202AD
:103FF000B091F3028A019B01082B192B2A2B3B2B32
:10400000C901B8011F910F910C94BF1F0F931F930B
:1040100041E050E060E070E004C0440F551F661FAF
:10402000771F8A95D2F7409550956095709580914D
:10403000F0029091F102A091F202B091F3028A0194
:104040009B01082319232A233B23C901B8011F918F
:104050000F910C94BF1F0F931F9341E050E060E05D
:1040600070E004C0440F551F661F771F8A95D2F772
:104070008091F0029091F102A091F202B091F302CE
:104080008A019B01082719272A273B27C901B80164
:104090001F910F910C94BF1F0F931F930091F0027B
:1040A0001091F1022091F2023091F302602B712BFA
:1040B000822B932B1F910F910C94BF1F0F931F9373
:1040C0000091F0021091F1022091F2023091F3027E
:1040D00060237123822393231F910F910C94BF1FA0
:1040E0000F931F930091F0021091F1022091F202C0
:1040F0003091F30260277127822793271F910F9138
:104100000C94BF1F089529E0929F800D1124E82F81
:10411000E695E695E695877051E001C0550F8A95C2
:10412000EAF785E0E89FF0011124E655FD4F20E015
:1041300030E070E04081CB01022E02C09695879559
:104140000A94E2F7817081958427852384278193DF
:104150002F5F3F4F2530310569F7089529E0929F81
:10416000800D1124682F669566956695982F977037
:1041700085E0689FB001112440E050E080E0FB0141
:10418000E40FF51FE655FD4F208130E0092E02C0F7
:10419000369527950A94E2F721703327042E01C043
:1041A000220F0A94EAF7822B4F5F5F4F453051058B
:1041B00031F70895BF92CF92DF92EF92FF920F9363
:1041C0001F93CF93DF938C01C090F002D090F10247
:1041D000E090F202F090F3028091F4029091F502E7
:1041E000A091F602B091F702C82AD92AEA2AFB2A3E
:1041F000CFE1D0E0D701C6010C2E04C0B695A7953B
:10420000979587950A94D2F780FD04C0219790F77F
:10421000B12C07C0BC2EB8018C2F0E9476040197E8
:10422000A9F38B2DDF91CF911F910F91FF90EF900C
:10423000DF90CF90BF900895CF93DF93EC010E9461
:10424000DA20BE010E947604DF91CF9108951F937A
:10425000CF93DF93EB0190917102992321F0CB0171
:104260000E941C2113C0882349F0CB010E94DA2050
:10427000182F682FCE010E94832004C0CB010E941A
:10428000AE20182FBE01812F0E947604DF91CF91BE
:104290001F9108958091F8028595859585950895DB
:1042A0008091F802877008959091F802977081E0EC
:1042B00009F480E008959091420392FB222720F9AF
:1042C000281751F080FB92F99093420380914103AB
:1042D000909142030C94672208958091420382FBDF
:1042E000882780F991E089270C945B2181E00C9468
:1042F0005B2180E00C945B2180911C0308959091D8
:104300001C03892B80931C030895809590911C03B6
:10431000892380931C03089510921C0308959091A3
:104320001B03892B80931B030895809590911B0399
:10433000892380931B03089510921B030895909185
:104340001A03892B80931A030895809590911A037C
:10435000892380931A03089510921A030895809177
:10436000F902089508950C94B2210C94B321909110
:10437000420392FD08C09091F902981721F08093B2
:10438000F9020C94B52108958091F902882329F04F
:104390001092F90280E00C94B5210895E0911F017C
:1043A000F091200180911C038083E0911F01F09126
:1043B0002001908180911B03892B8083E0911F0154
:1043C000F0912001908180911A03892B8083809144
:1043D000F902882381F0E0911F01F0912001908182
:1043E000892B808380911F01909120010E94F222ED
:1043F00081110E94C42180911F01909120010C9491
:1044000045160C94B2219091420392FD10C098E0A1
:10441000899F90011124262B2093F8020E94E51F0A
:104420008091F8028595859585950C9401220C94D0
:10443000E51F1092F80280E00C9401222091F8020E
:10444000809582238093F802982F977041F430E092
:10445000482F082E000C550B2417350721F4909196
:10446000420392FF07C08595859585950E94062099
:104470000C941922089580E008956FEF7FEF80E09B
:1044800090E00C94CA2C80E090E00E94A62C21E0E1
:104490008A3E9E4F09F020E0822F089582E090E04E
:1044A0000C94982C83E090E00C94982CCF9384E0AB
:1044B00090E00E94982CC82F82E290E00E94982CF5
:1044C0002C2F30E0A901582BCA01CF910895CF932A
:1044D000C92F682F84E090E00E94AC2C6C2F82E200
:1044E00090E0CF910C94AC2CAB01BC018FE090E03C
:1044F0000C94BE2CAB01BC0183E190E00C94BE2C6B
:1045000060E070E0CB010C947A2260E070E0CB01B7
:104510000E9474220C9480226AEE7EEF80E090E08C
:104520000E94CA2C60E082E090E00E94AC2C60E027
:1045300083E090E00E94AC2C1092F4021092F502FD
:104540001092F6021092F70260E084E090E00E9480
:10455000AC2C60E082E290E00E94AC2C60E085E050
:1045600090E00E94AC2C60E086E090E00E94AC2CD1
:104570006FEF87E090E00E94AC2C40E050E0BA0181
:1045800088E090E00E94BE2C60E08DE090E00E9408
:10459000AC2C40E050E0BA0188E190E00E94BE2CD3
:1045A00060E087E190E00E94AC2C40E050E0BA016E
:1045B0008CE190E00E94BE2C60E070E080E290E030
:1045C0000E94CA2C40E050E0BA0188E190E00E94CD
:1045D000BE2C0C9485220C948C22682F8EE090E0E7
:1045E0000C94AC2CFC01329680912B01882331F085
:1045F0008091410387FF02C09EE101C096E080E008
:10460000915028F021912223D9F38F5FF9CF08959B
:10461000662351F120912B012223E9F020914103DF
:1046200027FF19C0462F4695469546954E31E0F432
:10463000677021E030E002C0220F331F6A95E2F775
:10464000FC01E40FF11D828190E02823392381E0F1
:10465000232B69F409C0FC01329608962191621758
:1046600029F0E817F907D1F780E0089581E008956F
:104670009C01FC0132969FEF80E04191461789F042
:104680009F3F19F4411101C0982F8F5F8630A9F721
:104690009F3F39F0F901E90FF11D97FDFA9562830B
:1046A000089508959C012A5F3F4FFC014281461303
:1046B00001C01282019682179307B9F70895262F39
:1046C0002695269526952E3168F4FC01E20FF11D02
:1046D000677021E030E001C0220F6A95EAF782811D
:1046E000282B22830895262F2695269526952E3150
:1046F00070F4FC01E20FF11D677021E030E001C0B1
:10470000220F6A95EAF72095828128232283089553
:1047100020912B01222329F02091410327FD0C94A5
:104720005F230C94382320912B01222329F0209120
:10473000410327FD0C9473230C94522320912B01E9
:10474000FC013296222331F08091410387FF02C0A1
:104750008EE101C086E0DF011D928A95E9F7089598
:1047600008950C94B0230C94B023CF930E94B323EC
:104770000E94FB060E94B123C0E08C2F0E94A1067C
:10478000892B29F4CF5FCC30C1F780E001C081E0F4
:10479000CF9108950C94B0230C94CA238091B70351
:1047A000843061F10E94CC2380E00E946E1380E08F
:1047B0000E944E0410921E0320E488E190E00FB6A0
:1047C000F894A895809360000FBE2093600083B793
:1047D000817F846083BF83B7816083BF789488952D
:1047E00083B78E7F83BF0FB6F894A8958091600041
:1047F000886180936000109260000FBE08950C9451
:10480000B0230E948F1B0E945D120E9439160E94E5
:104810004E040C94FF231F920F920FB60F92112497
:104820008F939F93AF93BF9380911E03811113C009
:104830008091AF039091B003A091B103B091B20306
:104840004196A11DB11D8093AF039093B003A09337
:10485000B103B093B203BF91AF919F918F910F902D
:104860000FBE0F901F90189582E084BD93E095BD18
:104870009AEF97BD80936E0008952FB7F8948091BA
:10488000AF039091B003A091B103B091B2032FBFD9
:1048900008952FB7F8946091AF037091B0038091A1
:1048A000B1039091B2032FBF08959C014FB7F894C4
:1048B0008091AF039091B003A091B103B091B20386
:1048C0004FBF821B930B089578941F920F920FB6DF
:1048D0000F9211248F939F93AF93BF938091AF0357
:1048E0009091B003A091B103B091B2030196A11DC4
:1048F000B11D8093AF039093B003A093B103B09325
:10490000B203BF91AF919F918F910F900FBE0F9007
:104910001F90189581E08093E00080E28093D8009A
:104920001092C9008FE19EE40197F1F700C00000EA
:1049300087E090EBDC018093C0039093C103A093C8
:10494000C203B093C3039CE088E10FB6F894A89526
:10495000809360000FBE90936000FFCF9093CF01D3
:104960008093CE01089580913F030895CF93DF9304
:1049700000D01F92CDB7DEB79091B703943019F5F0
:1049800089837B836A8382E08093E9008FEF909133
:10499000E800815095FD06C095ED9A95F1F700006D
:1049A0008111F5CF8091E80085FF0DC040E050E017
:1049B00063E070E0CE0101960E94E6268091E80057
:1049C0008E778093E8000F900F900F90DF91CF913A
:1049D0000895BC0184E00C94B624BC0183E00C94DF
:1049E000B62422E02093E9002FEF3091E800215017
:1049F00035FD06C035ED3A95F1F700002111F5CFF0
:104A00002091E80025FF0BC040E050E066E070E038
:104A10000E94E6268091E8008E778093E800089552
:104A2000CF93DF9320912B01222339F02091410372
:104A300027FF03C060E222E002C068E021E020938B
:104A4000E9002FEF3091E800215035FD06C035ED2B
:104A50003A95F1F700002111F5CF2091E80025FFEC
:104A60001DC0EC0180912B01811105C040E050E098
:104A700068E070E003C070E040E050E0CE010E94CA
:104A8000E6268091E8008E778093E80080E2FE01C0
:104A9000AFE1B3E001900D928A95E1F7DF91CF91FC
:104AA00008958091B603811109C00E9477280E9461
:104AB000D4288091E20084608093E20008951092EF
:104AC000B603089508950895089542E061EC81E0E9
:104AD0000E94F02742E261EC82E00C94F027809182
:104AE000B903833009F460C030F4813071F0823052
:104AF00009F499C008958A3009F485C08B3009F40F
:104B00006BC0893009F0A7C020C08091B803813AFA
:104B100009F0A1C08091E800877F8093E800809130
:104B2000BC039091BD03892B21F460E28FE193E0F7
:104B300003C060E080E090E070E00E943127809147
:104B4000E8008B778093E80008958091B803813264
:104B500009F081C08091BC039091BD03029708F0D9
:104B60007AC08091E800877F8093E8008091E80018
:104B700082FD05C08091B7038111F8CF6CC02091F0
:104B8000F3008091F20090E0922B029729F480913B
:104B9000F1008B7F813021F48091F10080933F03FD
:104BA0008091E8008B7753C08091B803813A09F077
:104BB00052C08091BC039091BD03892B09F04BC07A
:104BC0008091E800877F8093E8008091E80080FF73
:104BD000FCCF80912B0136C08091B8038132D9F58A
:104BE0008091BC039091BD03892BA9F58091E800C9
:104BF000877F8093E8000E9425288091BA038093E4
:104C00002B010C948F1B8091B803813221F5809188
:104C1000E800877F8093E8000E9425288091BB03ED
:104C20008093400308958091B803813AA1F4809164
:104C3000E800877F8093E8008091E80080FFFCCF48
:104C4000809140038093F1008091E8008E778093FB
:104C5000E8000C942528089584B7877F84BF0FB699
:104C6000F894A8958091600088618093600010920C
:104C700060000FBE90E080E80FB6F894809361006A
:104C8000909361000FBE0E94C4160E9477280E9474
:104C9000D4288091E20084608093E20078940E949E
:104CA000692B0E94D21681E291E00E943416809115
:104CB000B7038530A9F48091B703853079F40E9459
:104CC000CE238091B5038823B1F30E94B5238823B6
:104CD00091F30E94D0260E948F1BEDCF0E940124E9
:104CE0000E94DC160E94CE16E2CF0C947726292F64
:104CF000332723303105C9F060F42130310581F0CC
:104D00002230310509F044C08BE390E02AEE34E014
:104D100043C021323105E1F02232310549F138C07A
:104D200082E190E025E235E037C099278130910596
:104D300049F028F0029761F5E6ECF4E005C0E6EEF4
:104D4000F4E002C0EAEDF4E0849190E09F0124C019
:104D50006115710541F061307105D1F489E090E091
:104D600025E135E019C089E090E02CEF34E014C073
:104D70006115710541F06130710551F486EB90E0E9
:104D800027E335E009C080E490E02DEE35E004C073
:104D900080E090E020E030E0FA0131832083089544
:104DA00080E189BD82E189BD09B400FEFDCF80911B
:104DB000D8008F7D8093D8008091E000826080933E
:104DC000E0008091E00081FDFCCF0895CF92DF925A
:104DD000EF92FF920F931F93CF93DF93EC018B0120
:104DE0007A010E944428811133C0E114F10439F0A2
:104DF000F70180819181081B190BC80FD91FC12CA5
:104E0000D12C0115110519F18091E80085FD16C01E
:104E10008091E8008E778093E800E114F10449F076
:104E2000F70180819181C80ED91ED182C08285E0B0
:104E30000FC00E944428882321F30AC089918093DF
:104E4000F10001501109FFEFCF1ADF0ADACF80E03D
:104E5000DF91CF911F910F91FF90EF90DF90CF9056
:104E600008952091BE033091BF032617370748F0FD
:104E70006115710539F42091E8002E772093E80040
:104E800001C0B901FC0120E06115710579F1809143
:104E9000B7038823F1F18530F1F18091E80083FDBB
:104EA0003CC08091E80082FD2EC08091E80080FF28
:104EB000EBCF2091F3008091F20090E0922B6115EE
:104EC000710551F08830910538F421912093F1005B
:104ED000615071090196F3CF21E0089709F020E0B5
:104EE0008091E8008E778093E800CECF2111CFCF5C
:104EF0000AC08091B703882361F0853061F080910A
:104F0000E80083FD0AC08091E80082FFF2CF80E0D4
:104F1000089582E0089583E0089581E00895209146
:104F2000BE033091BF032617370748F0611571059E
:104F300039F42091E8002E772093E80001C0B901F0
:104F4000FC0120E06115710591F18091B703882380
:104F500009F440C0853009F43FC08091E80083FD2A
:104F60003DC08091E80082FD2FC08091E80080FF65
:104F7000E9CF2091F3008091F20090E0922B61152F
:104F8000710559F08830910540F424912093F10087
:104F90003196615071090196F2CF21E0089709F02E
:104FA00020E08091E8008E778093E800CBCF21113C
:104FB000CCCF0AC08091B703882361F0853061F0BF
:104FC0008091E80083FD0AC08091E80082FFF2CF63
:104FD00080E0089582E0089583E0089581E00895D7
:104FE000982F973068F59093E900981739F07091F1
:104FF000EC002091ED005091F00003C0242F762F9B
:1050000050E021FD02C09F5FECCF3091EB003E7F6E
:105010003093EB003091ED003D7F3093ED00309107
:10502000EB0031603093EB007093EC002093ED00C7
:105030005093F0002091EE0027FDE5CF80E0089529
:105040008F708093E90081E008958091B80387FF15
:1050500011C08091E80082FD05C08091B7038111E5
:10506000F8CF11C08091E8008B770BC08091B70317
:10507000882349F08091E80080FFF8CF8091E80014
:105080008E778093E80008952091E4003091E50048
:1050900095E64091EC00842F817040FF23C0809101
:1050A000E80080FD1DC08091B703882399F085300A
:1050B00099F08091EB0085FD11C04091E400509182
:1050C000E5002417350729F3915011F09A01E1CF3B
:1050D00084E0089582E0089583E0089581E00895D2
:1050E00080E008954091E80042FFDDCF08950E94DE
:1050F000E5280E94ED28E0EEF0E080818160808369
:10510000E8EDF0E080818F77808319BCA7EDB0E0F7
:105110008C918E7F8C9380818F7E80831092B603DA
:1051200008950F931F93CF93DF930E94E5280E9469
:10513000ED28C8EDD0E088818F77888388818068EA
:10514000888388818F7D888319BC1092B703109261
:10515000B3031092B5031092B40300EE10E0F8010F
:1051600080818B7F808388818160888342E060E0DA
:1051700080E00E94F027E1EEF0E080818E7F808366
:10518000E2EEF0E0808181608083808188608083AE
:10519000F80180818E7F8083888180618883DF91A0
:1051A000CF911F910F910895E8EDF0E080818F7EFF
:1051B0008083E7EDF0E080818160808384E082BFBE
:1051C00081E08093B6030C949128E8EDF0E08081B3
:1051D0008E7F80831092E20008951092DA00109280
:1051E000E10008951F920F920FB60F9211242F9392
:1051F0003F934F935F936F937F938F939F93AF935F
:10520000BF93EF93FF938091E10082FF0BC08091E9
:10521000E20082FF07C08091E1008B7F8093E10074
:105220000E94682B8091DA0080FF1FC08091D80017
:1052300080FF1BC08091DA008E7F8093DA0080911E
:10524000D90080FF0DC080E189BD82E189BD09B42C
:1052500000FEFDCF81E08093B7030E94512505C079
:1052600019BC1092B7030E945F258091E10080FF76
:1052700019C08091E20080FF15C08091E2008E7F0E
:105280008093E2008091E20080618093E20080914F
:10529000D80080628093D80019BC85E08093B70362
:1052A0000E9463258091E10084FF30C08091E2007C
:1052B00084FF2CC080E189BD82E189BD09B400FE74
:1052C000FDCF8091D8008F7D8093D8008091E10040
:1052D0008F7E8093E1008091E2008F7E8093E200D8
:1052E0008091E20081608093E2008091B303882383
:1052F00011F084E007C08091E30087FD02C081E0E7
:1053000001C083E08093B7030E9464258091E1008F
:1053100083FF29C08091E20083FF25C08091E100D6
:10532000877F8093E10082E08093B7031092B303FC
:105330008091E1008E7F8093E1008091E2008E7F7A
:105340008093E2008091E20080618093E20042E07D
:1053500060E080E00E94F0278091F00088608093F8
:10536000F0000E946225FF91EF91BF91AF919F9154
:105370008F917F916F915F914F913F912F910F90FE
:105380000FBE0F901F9018951F920F920FB60F929D
:1053900011242F933F934F935F936F937F938F933A
:1053A0009F93AF93BF93CF93DF93EF93FF93C091FE
:1053B000E900CF708091EC00D82FD17080FDD0E84B
:1053C0001092E9008091F000877F8093F00078943C
:1053D0000E94082A1092E9008091F0008860809372
:1053E000F000CD2BCF70C093E900FF91EF91DF91DA
:1053F000CF91BF91AF919F918F917F916F915F916D
:105400004F913F912F910F900FBE0F901F901895C5
:105410001F93CF93DF93CDB7DEB7AA970FB6F8945B
:10542000DEBF0FBECDBFE8EBF3E08091F1008193CA
:1054300023E0E03CF207C9F70E946F258091E80065
:1054400083FF2EC18091B8039091B903492F50E09A
:105450004A30510508F024C1FA01EC58FF4F0C9472
:10546000F82B803821F0823809F01AC108C08091E9
:10547000B4039091B503992389F082600FC08091A5
:10548000BC038F70873008F00BC18093E9008091D6
:10549000EB0085FB882780F91092E9009091E800E5
:1054A000977F9093E8008093F1001092F100D1C0B3
:1054B000282F2D7F09F0F4C0882319F0823061F085
:1054C000EFC08091BA03813009F0EAC0933009F04F
:1054D00080E08093B5032EC08091BA0381112AC069
:1054E0008091BC038F702FEF280F263008F0D8C0B2
:1054F0008093E9002091EB0020FF1CC0933021F441
:105500008091EB00806214C09091EB0090619093C9
:10551000EB0021E030E0A90102C0440F551F8A953D
:10552000E2F74093EA001092EA008091EB00886075
:105530008093EB001092E9008091E800877F8093D0
:10554000E8000E942528ACC08111AAC01091BA03BE
:105550001F778091E3008078812B8093E300809116
:10556000E800877F8093E8000E9425288091E8006A
:1055700080FFFCCF8091E30080688093E3001111ED
:1055800002C082E001C083E08093B70389C08058E5
:10559000823008F085C08091BA039091BB038C3DA6
:1055A00053E0950779F583E08A838AE289834FB7D0
:1055B000F894DE01139620E03EE051E2E32FF0E0A4
:1055C00050935700E49120FF03C0E295EF703F5FD6
:1055D000EF708E2F90E0EA3010F0C79601C0C096B1
:1055E0008D939D932F5F243149F74FBF8091E80041
:1055F000877F8093E8006AE270E0CE0101960E9406
:10560000312716C06091BC037091BD03AE014F5F9E
:105610005F4F0E947526BC01892B09F441C090910F
:10562000E800977F9093E80089819A810E948F27F4
:105630008091E8008B778093E80032C0803881F554
:105640008091E800877F8093E8008091B303809386
:10565000F1008091E8008E7772CF811121C0809196
:10566000BA039091BB0399270297D4F48091E80084
:10567000877F8093E8008091BA038093B3030E94F0
:1056800025288091B303811106C08091E30087FD36
:1056900002C081E001C084E08093B7030E946525C9
:1056A0008091E80083FF0AC08091E800877F8093A3
:1056B000E8008091EB0080628093EB00AA960FB621
:1056C000F894DEBF0FBECDBFDF91CF911F9108953B
:1056D0000895CF938091B7038823A1F0C091E9008A
:1056E000CF709091EC00892F817090FD80E8C82BDD
:1056F0001092E9008091E80083FD0E94082ACF7093
:10570000C093E900CF910895DB018F939F930E948E
:105710001C2CBF91AF91A29F800D911DA39F900D56
:10572000B29F900D11240895991B79E004C0991F30
:10573000961708F0961B881F7A95C9F780950895EB
:1057400087FB082E062687FD819567FD61950E94DF
:10575000942B0EF4919507FC81950895AA1BBB1B11
:1057600051E107C0AA1FBB1FA617B70710F0A61B61
:10577000B70B881F991F5A95A9F780959095BC0182
:10578000CD01089597FB072E16F4009407D077FDFE
:1057900009D00E94AE2B07FC05D03EF49095819570
:1057A0009F4F0895709561957F4F0895A1E21A2E3D
:1057B000AA1BBB1BFD010DC0AA1FBB1FEE1FFF1FB5
:1057C000A217B307E407F50720F0A21BB30BE40B05
:1057D000F50B661F771F881F991F1A9469F760954C
:1057E0007095809590959B01AC01BD01CF01089506
:1057F000EE0FFF1F0590F491E02D09940E94062CF6
:10580000332312F48A1B9B0B0C94172CA29FB0011C
:10581000B39FC001A39F700D811D1124911DB29FE4
:10582000700D811D1124911D08950E94062CB7FF53
:105830000895821B930B08950E94062CA59F900D3E
:10584000B49F900DA49F800D911D11240895B7FF62
:105850000C941C2C0E941C2C821B930B08958F927D
:105860009F92AF92BF92CF92DF92EF92FF92CF932F
:10587000DF93EC01688179818A819B8161157105D3
:105880008105910521F464E279ED8BE597E02DE146
:1058900033EF41E050E00E94E02C49015A019B01A6
:1058A000AC01A7EAB1E40E941C2C6B017C01ACEEB8
:1058B000B4EFA50194010E942A2CDC01CB018C0DD0
:1058C0009D1DAE1DBF1DB7FF03C00197A109B048C4
:1058D00088839983AA83BB839F77DF91CF91FF90C1
:1058E000EF90DF90CF90BF90AF909F908F900895F2
:1058F0000E942F2C089580E091E00E942F2C0895A3
:10590000A0E0B0E08093000190930101A093020118
:10591000B09303010895FC014150504030F00190D4
:105920000616D1F73197CF01089588279927089552
:10593000F999FECF92BD81BDF89A992780B5089557
:10594000A6E1B0E044E050E00C94D22CA8E1B0E035
:1059500042E050E00C94D22C262FF999FECF92BD54
:1059600081BDF89A019700B4021639F01FBA20BD24
:105970000FB6F894FA9AF99A0FBE08950396272F56
:105980000E94AD2C0E94AC2C252F0E94AD2C242F00
:105990000C94AD2C0196272F0E94AD2C0C94AC2CAE
:1059A000DC01CB01FC01F999FECF06C0F2BDE1BDDF
:1059B000F89A319600B40D9241505040B8F70895CE
:1059C000052E97FB1EF400940E94F72C57FD07D07C
:1059D0000E94D62B07FC03D04EF40C94F72C509564
:1059E0004095309521953F4F4F4F5F4F08959095CB
:1059F0008095709561957F4F8F4F9F4F0895F894D4
:025A0000FFCFD6
:105A0200010000002808641E140A321E010102006F
:105A12001200121201191A1B1C1D1E1F202122FA2C
:105A220002B3241025F124ED24E92401E200E90067
:105A3200EA00B500B600B700CD008301CC008A01B0
:105A42009201940121022302240225022602270246
:105A52002A02B300B4006F00700081828390919299
:105A62009395949697343733323130C6F0F1F4F58A
:105A7200F6F70001020202020606060909090909EF
:105A8200090F0F0F0F0F0F151515181919191919DD
:105A920019191919192324252525252525E200E997
:105AA20000EA00B500B600B700CD008301CC008A41
:105AB20001920194012102230224022502260227D7
:0E5AC200022A02B300B4006F007000818283DC
:00000001FF
